:100000000C9419140C9441140C9441140C94411444
:100010000C9441140C9441140C9441140C9430151C
:100020000C9441140C9441140C9441140C944915F3
:100030000C9441140C9441140C94E1160C9441144A
:100040000C945E240C9441140C9441140C944114AF
:100050000C9441140C9441140C9441140C944114CC
:100060000C9441140C9441142020202020202020A6
:100070002020202020202020000000000000000080
:100080000000000000000020000000000000000050
:10009000000000000001002000000000000000003F
:1000A0000000000000000020000000000000000030
:1000B000000000002E2F3020000000000000000093
:1000C000000000003132332000000000000000007A
:1000D0000000000034353620000000000000000061
:1000E00000000000000000200000000000000000F0
:1000F00000000000000020200000000000000000C0
:10010000000000000020212000000000000000008E
:10011000000000002021002000000000000000007E
:10012000000000202100002000000000000000006E
:10013000000000200000002000000000000000007F
:10014000000000200000002000000000000000006F
:10015000000000000000002000000000000000007F
:10016000000000000000002000000000000000006F
:10017000000000000000002000000000000000005F
:10018000000000000002002000000000000000004D
:10019000000000000000002000000000000000003F
:1001A000000000000000002000000000000000002F
:1001B000000000000004002000000000000000001B
:1001C000000000000000002000000000000000000F
:1001D00000000000000000200000000000000000FF
:1001E00000000000000000200000000000000000EF
:1001F000004040404040402000000000000000005F
:1002000000002000000000200000000000000000AE
:10021000000020030000002000000000000000009B
:1002200000000000000000200000000000000000AE
:1002300000200000004142200000000000000000FB
:1002400000200000004344200000000000000000E7
:10025000002000000000002000000000000000005E
:1002600000000000004748200000000000000000DF
:1002700000200000004546200000000000000000B3
:10028000002000000000002000000000000000002E
:10029000000000000000002000000000000000003E
:1002A0002000000000000020000000000037383966
:1002B000200000000000002000000000003A0000C4
:1002C000200000000000002000000000003D3E3F34
:1002D00020000000000000202020202020202020DE
:1002E000202020202020202000000000000000000E
:1002F00000000020220000000000000000000000BC
:100300000020002022240000000000000000000067
:100310000020002022240000000000000000000057
:100320002000002022230000000000000000000048
:100330002000002023002400000000000000002016
:100340000001002024240000000000000000002024
:100350000000002023230000000000000000200017
:10036000000000202200000000000000000020002B
:100370000000002024000000000000000000200019
:1003800000000020242324000000000000000000E2
:100390000000002024000000000000000000000019
:1003A0000000002024000000000000000000000009
:1003B00000000020242300000000000000000000D6
:1003C00000000020240000000000000000000000E9
:1003D0000000202022002400000000000000000097
:1003E0000020212022230000000000000000000067
:1003F000202100202200000000000000000000205A
:100400002100002022000000000000000000202148
:100410000000002022230000000000000000000077
:100420000000002022002400000000000022000044
:1004300000000000000000000000000000000000BC
:100440000000000000230000000000000000220067
:100450000000002022000000000000000000232314
:100460000000002223000000000000000000202403
:1004700000000020220024000000000000002025D1
:10048000000000202200000000000000000000002A
:1004900000000020222400000000000000000000F6
:1004A00000000020230000000000000000220000E7
:1004B00000000020220000000000000000200000DA
:1004C00000000020220024000000000000200000A6
:1004D00000000020220000000000000000220000B8
:1004E00000000020220000000000000000000000CA
:1004F00000000020220000000000000000000000BA
:1005000000000020230000000000000000000000A8
:100510000000002022000000000000000000220077
:100520000000002024000000000000000000202344
:100530000000002022000000000000000000200059
:100540000000002022000000000000000000220047
:100550000000002023000000202020202020202058
:10056000202020202020202000000000000000008B
:100570000000002022000000000000000000000039
:1005800000200020222400000000000000000000E5
:1005900000200020222400000000000000000000D5
:1005A00020000020222300000000000000000000C6
:1005B0002000002023002400000000000000002094
:1005C00000010020242400000000000000000020A2
:1005D0000000002023230000000000000000200095
:1005E00000000020220000000000000000002000A9
:1005F0000000002024000000000000000000200097
:10060000000000202423240000000000000000005F
:100610000000002024000000000000000000000096
:100620000000002024000000000000000000000086
:100630000000002024230000000000000000000053
:100640000000002024000000000000000000000066
:100650000000202022002400000000000000000014
:1006600000202120222300000000000000000000E4
:1006700020210020220000000000000000000020D7
:1006800021000020220000000000000000002021C6
:1006900000000020222300000000000000000000F5
:1006A00000000020220024000000000000220000C2
:1006B000000000000000000000000000000000003A
:1006C00000000000002300000000000000002200E5
:1006D0000000002022000000000000000000232392
:1006E0000000002223000000000000000000202481
:1006F000000000202200240000000000000020254F
:1007000000000020220000000000000000000000A7
:100710000000002022240000000000000000000073
:100720000000002023000000000000000022000064
:100730000000002022000000000000000020000057
:100740000000002022002400000000000020000023
:100750000000002022000000000000000022000035
:100760000000002022000000000000000000000047
:100770000000002022000000000000000000000037
:100780000000002023000000000000000000000026
:1007900000000020220000000000000000002200F5
:1007A00000000020240000000000000000002023C2
:1007B00000000020220000000000000000002000D7
:1007C00000000020220000000000000000002200C5
:1007D00000000020230000002020202020202020D6
:1007E0002020202020202020000000000000000009
:1007F00000000020220000000000000000000000B7
:100800000020002022240000000000000000000062
:100810000020002022240000000000000000000052
:100820002000002022230000000000000000000043
:100830002000002023002400000000000000002011
:10084000000100202424000000000000000000201F
:100850000000002023230000000000000000200012
:100860000000002022000000000000000000200026
:100870000000002024000000000000000000200014
:1008800000000020242324000000000000000000DD
:100890000000002024000000000000000000000014
:1008A0000000002024000000000000000000000004
:1008B00000000020242300000000000000000000D1
:1008C00000000020240000000000000000000000E4
:1008D0000000202022002400000000000000000092
:1008E0000020212022230000000000000000000062
:1008F0002021002022000000000000000000002055
:100900002100002022000000000000000000202143
:100910000000002022230000000000000000000072
:10092000000000202200240000000000002200003F
:1009300000000000000000000000000000000000B7
:100940000000000000230000000000000000220062
:10095000000000202200000000000000000023230F
:1009600000000022230000000000000000002024FE
:1009700000000020220024000000000000002025CC
:100980000000002022000000000000000000000025
:1009900000000020222400000000000000000000F1
:1009A00000000020230000000000000000220000E2
:1009B00000000020220000000000000000200000D5
:1009C00000000020220024000000000000200000A1
:1009D00000000020220000000000000000220000B3
:1009E00000000020220000000000000000000000C5
:1009F00000000020220000000000000000000000B5
:100A000000000020230000000000000000000000A3
:100A10000000002022000000000000000000220072
:100A2000000000202400000000000000000020233F
:100A30000000002022000000000000000000200054
:100A40000000002022000000000000000000220042
:100A50000000002023000000202020202020202053
:100A60002020202020202020000000000000000086
:100A70000000002022000000000000000000000034
:100A800000200020222400000000000000000000E0
:100A900000200020222400000000000000000000D0
:100AA00020000020222300000000000000000000C1
:100AB000200000202300240000000000000000208F
:100AC000000100202424000000000000000000209D
:100AD0000000002023230000000000000000200090
:100AE00000000020220000000000000000002000A4
:100AF0000000002024000000000000000000200092
:100B0000000000202423240000000000000000005A
:100B10000000002024000000000000000000000091
:100B20000000002024000000000000000000000081
:100B3000000000202423000000000000000000004E
:100B40000000002024000000000000000000000061
:100B5000000020202200240000000000000000000F
:100B600000202120222300000000000000000000DF
:100B700020210020220000000000000000000020D2
:100B800021000020220000000000000000002021C1
:100B900000000020222300000000000000000000F0
:100BA00000000020220024000000000000220000BD
:100BB0000000000000000000000000000000000035
:100BC00000000000002300000000000000002200E0
:100BD000000000202200000000000000000023238D
:100BE000000000222300000000000000000020247C
:100BF000000000202200240000000000000020254A
:100C000000000020220000000000000000000000A2
:100C1000000000202224000000000000000000006E
:100C2000000000202300000000000000002200005F
:100C30000000002022000000000000000020000052
:100C4000000000202200240000000000002000001E
:100C50000000002022000000000000000022000030
:100C60000000002022000000000000000000000042
:100C70000000002022000000000000000000000032
:100C80000000002023000000000000000000000021
:100C900000000020220000000000000000002200F0
:100CA00000000020240000000000000000002023BD
:100CB00000000020220000000000000000002000D2
:100CC00000000020220000000000000000002200C0
:100CD00000000020230000002020202020202020D1
:100CE0002020202020202020000000000000000004
:100CF00000000020220000000000000000000000B2
:100D0000002000202224000000000000000000005D
:100D1000002000202224000000000000000000004D
:100D2000200000202223000000000000000000003E
:100D3000200000202300240000000000000000200C
:100D4000000100202424000000000000000000201A
:100D5000000000202323000000000000000020000D
:100D60000000002022000000000000000000200021
:100D7000000000202400000000000000000020000F
:100D800000000020242324000000000000000000D8
:100D9000000000202400000000000000000000000F
:100DA00000000020240000000000000000000000FF
:100DB00000000020242300000000000000000000CC
:100DC00000000020240000000000000000000000DF
:100DD000000020202200240000000000000000008D
:100DE000002021202223000000000000000000005D
:100DF0002021002022000000000000000000002050
:100E0000210000202200000000000000000020213E
:100E1000000000202223000000000000000000006D
:100E2000000000202200240000000000002200003A
:100E300000000000000000000000000000000000B2
:100E4000000000000023000000000000000022005D
:100E5000000000202200000000000000000023230A
:100E600000000022230000000000000000002024F9
:100E700000000020220024000000000000002025C7
:100E80000000002022000000000000000000000020
:100E900000000020222400000000000000000000EC
:100EA00000000020230000000000000000220000DD
:100EB00000000020220000000000000000200000D0
:100EC000000000202200240000000000002000009C
:100ED00000000020220000000000000000220000AE
:100EE00000000020220000000000000000000000C0
:100EF00000000020220000000000000000000000B0
:100F0000000000202300000000000000000000009E
:100F1000000000202200000000000000000022006D
:100F2000000000202400000000000000000020233A
:100F3000000000202200000000000000000020004F
:100F4000000000202200000000000000000022003D
:100F5000000000202300000020202020202020204E
:100F60002020202020202020000000000000000081
:100F7000000000202200000000000000000000002F
:100F800000200020222400000000000000000000DB
:100F900000200020222400000000000000000000CB
:100FA00020000020222300000000000000000000BC
:100FB000200000202300240000000000000000208A
:100FC0000001002024240000000000000000002098
:100FD000000000202323000000000000000020008B
:100FE000000000202200000000000000000020009F
:100FF000000000202400000000000000000020008D
:101000000000002024232400000000000000000055
:10101000000000202400000000000000000000008C
:10102000000000202400000000000000000000007C
:101030000000002024230000000000000000000049
:10104000000000202400000000000000000000005C
:10105000000020202200240000000000000000000A
:1010600000202120222300000000000000000000DA
:1010700020210020220000000000000000000020CD
:1010800021000020220000000000000000002021BC
:1010900000000020222300000000000000000000EB
:1010A00000000020220024000000000000220000B8
:1010B0000000000000000000000000000000000030
:1010C00000000000002300000000000000002200DB
:1010D0000000002022000000000000000000232388
:1010E0000000002223000000000000000000202477
:1010F0000000002022002400000000000000202545
:10110000000000202200000000000000000000009D
:101110000000002022240000000000000000000069
:10112000000000202300000000000000002200005A
:10113000000000202200000000000000002000004D
:101140000000002022002400000000000020000019
:10115000000000202200000000000000002200002B
:10116000000000202200000000000000000000003D
:10117000000000202200000000000000000000002D
:10118000000000202300000000000000000000001C
:1011900000000020220000000000000000002200EB
:1011A00000000020240000000000000000002023B8
:1011B00000000020220000000000000000002000CD
:1011C00000000020220000000000000000002200BB
:1011D00000000020230000002020202020202020CC
:1011E00020202020202020200000000000000000FF
:1011F00000000020220000000000000000000000AD
:101200000020002022240000000000000000000058
:101210000020002022240000000000000000000048
:101220002000002022230000000000000000000039
:101230002000002023002400000000000000002007
:101240000001002024240000000000000000002015
:101250000000002023230000000000000000200008
:10126000000000202200000000000000000020001C
:10127000000000202400000000000000000020000A
:1012800000000020242324000000000000000000D3
:10129000000000202400000000000000000000000A
:1012A00000000020240000000000000000000000FA
:1012B00000000020242300000000000000000000C7
:1012C00000000020240000000000000000000000DA
:1012D0000000202022002400000000000000000088
:1012E0000020212022230000000000000000000058
:1012F000202100202200000000000000000000204B
:101300002100002022000000000000000000202139
:101310000000002022230000000000000000000068
:101320000000002022002400000000000022000035
:1013300000000000000000000000000000000000AD
:101340000000000000230000000000000000220058
:101350000000002022000000000000000000232305
:1013600000000022230000000000000000002024F4
:1013700000000020220024000000000000002025C2
:10138000000000202200000000000000000000001B
:1013900000000020222400000000000000000000E7
:1013A00000000020230000000000000000220000D8
:1013B00000000020220000000000000000200000CB
:1013C0000000002022002400000000000020000097
:1013D00000000020220000000000000000220000A9
:1013E00000000020220000000000000000000000BB
:1013F00000000020220000000000000000000000AB
:101400000000002023000000000000000000000099
:101410000000002022000000000000000000220068
:101420000000002024000000000000000000202335
:10143000000000202200000000000000000020004A
:101440000000002022000000000000000000220038
:101450000000002023000000202020202020202049
:10146000202020202020202000000000000000007C
:10147000000000202200000000000000000000002A
:1014800000200020222400000000000000000000D6
:1014900000200020222400000000000000000000C6
:1014A00020000020222300000000000000000000B7
:1014B0002000002023002400000000000000002085
:1014C0000001002024240000000000000000002093
:1014D0000000002023230000000000000000200086
:1014E000000000202200000000000000000020009A
:1014F0000000002024000000000000000000200088
:101500000000002024232400000000000000000050
:101510000000002024000000000000000000000087
:101520000000002024000000000000000000000077
:101530000000002024230000000000000000000044
:101540000000002024000000000000000000000057
:101550000000202022002400000000000000000005
:1015600000202120222300000000000000000000D5
:1015700020210020220000000000000000000020C8
:1015800021000020220000000000000000002021B7
:1015900000000020222300000000000000000000E6
:1015A00000000020220024000000000000220000B3
:1015B000000000000000000000000000000000002B
:1015C00000000000002300000000000000002200D6
:1015D0000000002022000000000000000000232383
:1015E0000000002223000000000000000000202472
:1015F0000000002022002400000000000000202540
:101600000000002022000000000000000000000098
:101610000000002022240000000000000000000064
:101620000000002023000000000000000022000055
:101630000000002022000000000000000020000048
:101640000000002022002400000000000020000014
:101650000000002022000000000000000022000026
:101660000000002022000000000000000000000038
:101670000000002022000000000000000000000028
:101680000000002023000000000000000000000017
:1016900000000020220000000000000000002200E6
:1016A00000000020240000000000000000002023B3
:1016B00000000020220000000000000000002000C8
:1016C00000000020220000000000000000002200B6
:1016D00000000020230000002020202020202020C7
:1016E00020202020202020200000000000000000FA
:1016F00000000020220000000000000000000000A8
:101700000020002022240000000000000000000053
:101710000020002022240000000000000000000043
:101720002000002022230000000000000000000034
:101730002000002023002400000000000000002002
:101740000001002024240000000000000000002010
:101750000000002023230000000000000000200003
:101760000000002022000000000000000000200017
:101770000000002024000000000000000000200005
:1017800000000020242324000000000000000000CE
:101790000000002024000000000000000000000005
:1017A00000000020240000000000000000000000F5
:1017B00000000020242300000000000000000000C2
:1017C00000000020240000000000000000000000D5
:1017D0000000202022002400000000000000000083
:1017E0000020212022230000000000000000000053
:1017F0002021002022000000000000000000002046
:101800002100002022000000000000000000202134
:101810000000002022230000000000000000000063
:101820000000002022002400000000000022000030
:1018300000000000000000000000000000000000A8
:101840000000000000230000000000000000220053
:101850000000002022000000000000000000232300
:1018600000000022230000000000000000002024EF
:1018700000000020220024000000000000002025BD
:101880000000002022000000000000000000000016
:1018900000000020222400000000000000000000E2
:1018A00000000020230000000000000000220000D3
:1018B00000000020220000000000000000200000C6
:1018C0000000002022002400000000000020000092
:1018D00000000020220000000000000000220000A4
:1018E00000000020220000000000000000000000B6
:1018F00000000020220000000000000000000000A6
:101900000000002023000000000000000000000094
:101910000000002022000000000000000000220063
:101920000000002024000000000000000000202330
:101930000000002022000000000000000000200045
:101940000000002022000000000000000000220033
:101950000000002023000000202020202020202044
:101960002020202020202020000000000000000077
:101970000000002022000000000000000000000025
:1019800000200020222400000000000000000000D1
:1019900000200020222400000000000000000000C1
:1019A00020000020222300000000000000000000B2
:1019B0002000002023002400000000000000002080
:1019C000000100202424000000000000000000208E
:1019D0000000002023230000000000000000200081
:1019E0000000002022000000000000000000200095
:1019F0000000002024000000000000000000200083
:101A0000000000202423240000000000000000004B
:101A10000000002024000000000000000000000082
:101A20000000002024000000000000000000000072
:101A3000000000202423000000000000000000003F
:101A40000000002024000000000000000000000052
:101A50000000202022002400000000000000000000
:101A600000202120222300000000000000000000D0
:101A700020210020220000000000000000000020C3
:101A800021000020220000000000000000002021B2
:101A900000000020222300000000000000000000E1
:101AA00000000020220024000000000000220000AE
:101AB0000000000000000000000000000000000026
:101AC00000000000002300000000000000002200D1
:101AD000000000202200000000000000000023237E
:101AE000000000222300000000000000000020246D
:101AF000000000202200240000000000000020253B
:101B00000000002022000000000000000000000093
:101B1000000000202224000000000000000000005F
:101B20000000002023000000000000000022000050
:101B30000000002022000000000000000020000043
:101B4000000000202200240000000000002000000F
:101B50000000002022000000000000000022000021
:101B60000000002022000000000000000000000033
:101B70000000002022000000000000000000000023
:101B80000000002023000000000000000000000012
:101B900000000020220000000000000000002200E1
:101BA00000000020240000000000000000002023AE
:101BB00000000020220000000000000000002000C3
:101BC00000000020220000000000000000002200B1
:101BD00000000020230000002020202020202020C2
:101BE00020202020202020200000000000000000F5
:101BF00000000020220000000000000000000000A3
:101C0000002000202224000000000000000000004E
:101C1000002000202224000000000000000000003E
:101C2000200000202223000000000000000000002F
:101C300020000020230024000000000000000020FD
:101C4000000100202424000000000000000000200B
:101C500000000020232300000000000000002000FE
:101C60000000002022000000000000000000200012
:101C70000000002024000000000000000000200000
:101C800000000020242324000000000000000000C9
:101C90000000002024000000000000000000000000
:101CA00000000020240000000000000000000000F0
:101CB00000000020242300000000000000000000BD
:101CC00000000020240000000000000000000000D0
:101CD000000020202200240000000000000000007E
:101CE000002021202223000000000000000000004E
:101CF0002021002022000000000000000000002041
:101D0000210000202200000000000000000020212F
:101D1000000000202223000000000000000000005E
:101D2000000000202200240000000000002200002B
:101D300000000000000000000000000000000000A3
:101D4000000000000023000000000000000022004E
:101D500000000020220000000000000000002323FB
:101D600000000022230000000000000000002024EA
:101D700000000020220024000000000000002025B8
:101D80000000002022000000000000000000000011
:101D900000000020222400000000000000000000DD
:101DA00000000020230000000000000000220000CE
:101DB00000000020220000000000000000200000C1
:101DC000000000202200240000000000002000008D
:101DD000000000202200000000000000002200009F
:101DE00000000020220000000000000000000000B1
:101DF00000000020220000000000000000000000A1
:101E0000000000202300000000000000000000008F
:101E1000000000202200000000000000000022005E
:101E2000000000202400000000000000000020232B
:101E30000000002022000000000000000000200040
:101E4000000000202200000000000000000022002E
:101E5000000000202300000020202020202020203F
:101E60002020202020202020010200000104040561
:101E700008130B0A0A0A1917171B000000000000BC
:101E8000000000000000E000F001F003F007F00F98
:101E9000F80FF80FF807F007E0030000000000005B
:101EA00010007000F005F807F807B80FB80F3C1FD6
:101EB0007C1FFC1FFC0FF80FF0078000C000E0083B
:101EC000F008F80F6C0E340E3C1F9E1FBE1D3E1C0A
:101ED0003E1C1C14D01CF00FF807400060082008BE
:101EE0000018001C081C8C0C9C019E013E003E004A
:101EF0001C30001820103003800140000000000852
:101F00000018800088010C001C000C00000000205C
:101F10000030001000001002000100000008000066
:101F20008000080000000000000000000020000009
:101F300000000000000008000002000400000C0087
:101F4000800C0080040080500080B500803A05803D
:101F50001107809801006000003E0000000000446E
:101F600000004400006600000800001800001A008D
:101F7000000A00001600003600007A0000540080BD
:101F80004100007E00000000001000001000003042
:101F900000001800000400000C00400C0040840009
:101FA00080D00080880100B50100970100BA0100CF
:101FB0009000002800002400002400004400006677
:101FC00000000800001800001800000800000000D1
:101FD000001000007800005000807900007E0000B2
:101FE0000800001400001800003000003800000451
:101FF0007E008C03800C0180040180500180B501BB
:10200000803A018011008038000010000028000094
:102010002400004400004400006600001E00E0FFB1
:1020200027F8FF00FE1F00FF0F00FF25007F1A00AA
:102030003E0900D01C000008000018000024000029
:10204000240000440000660000010000030010337B
:102050000004610002EC0000D20001940103880139
:102060001F1C007E6800F8D400E0A20380A40700D3
:10207000A40F00660000020000060000660000C217
:102080000000D80100A401005E03004903001C0009
:1020900000280000C80000240300240C00440000B5
:1020A0006600000000008001C663C993D00BD42BEA
:1020B000AA55D18BA005D81B2424524A1188081098
:1020C0000810000000000000000080000001001D5A
:1020D000003D303DE83DFC1F520FE831A44820117F
:1020E0002011000000000000000000004000801CE3
:1020F000803EB03EA83EBC07E23DB04248044408E2
:10210000440800000000000000000000002030181B
:102110004024B83A683DFC1FA20A9008901088102D
:102120008810000000000000000000040002001AF7
:10213000103A683D5C3DB21EE005600A2012102492
:102140001024000080008001C00380018001C000D5
:10215000E001200160016001A003C001C001C001D5
:1021600060030000000080008001C0038001C00106
:10217000E000F001F003A0005000F800F800F800C3
:10218000780080008001C0038001F011F81DD80F95
:1021900088010800C003E007E007F003F803180710
:1021A0000000000080008001C0038001C0017000B9
:1021B000F802EC03D8000000E403FC07F007E00F8E
:1021C00080008001C0038001C009E006F007F80329
:1021D000D800040070007800FC00FC00780030009B
:1021E00000000000005CB062000000000074986114
:1021F000000000000070BE580000000000709964EC
:102200000000BF00FBFBFB00BFBF0000DF402B1343
:102210000B0403010000008040A0D008B4BA000005
:10222000FF5500FBFB00BFBF00000103040B1B2098
:102230005F9F0000BB01FBF9FB01BBB90000DF8021
:10224000DB9BDB80DF9F0000BB02F4E8D0204080F6
:102250000000802031476FCFFEFE00002021048E59
:10226000E7FEFE7F000001048CE2F6F77F7F0000AE
:1022700004842071E76F7FFE0000FF8191A5A19586
:1022800081FF0000FF8191A5A19581FF0000000062
:102290000080C060B0B00000D8D86C6CECECCCEC26
:1022A0000000ECEC6CECCCECEC000000003E63D5E4
:1022B000B677F7D5000094941414F7F7D5D500003D
:1022C000F7F7F6F7F797F7000000000000000103AA
:1022D000060600000D0D1B1B1B1B191B00001B1A03
:1022E0001B1B191B1B00000000000080C060303069
:1022F000000018180C0C0C0C0C0C00000C0C0C0C36
:102300000C0C0C000000003E63C1800000000000C7
:10231000FF8191A5A19581FF0000FF8191A5A19565
:1023200081FF0000000000000103060600000C0C05
:102330001818181818180000181818181818180065
:102340000000FF81FF81FF81FF810000000000008D
:10235000000000000000000000008080E02000007D
:10236000000000000060F0F0000068140A0502029E
:102370000F08000000000000000000000000000046
:1023800000000101070400000000000000060F0F1C
:102390000000162850A04040F0100000FF8191A5D9
:1023A000A19581FF0000FF8191A5A19581FF00000B
:1023B000FF8191A5A19581FF0000FF8191A5A195C5
:1023C00081FF0000FF8191A5A19581FF0000FF81A1
:1023D00091A5A19581FF0000FF8191A5A19581FFA5
:1023E0000000FF8191A5A19581FF0000FF8191A5CB
:1023F000A19581FF0000FF8191A5A19581FF0000BB
:10240000FF8191A5A19581FF0000FF8191A5A19574
:1024100081FF0000FF8191A5A19581FF0000FFFFD2
:10242000FFFF03C003C00000101004101004180FB9
:1024300007101005000080008801C803880188018A
:10244000C800E8017803B803C801C801C801C80181
:10245000E801E8010000000000010003800700031C
:102460008003C001E03BE0075801A600F001F00145
:10247000F001F00080008001C0038001F011F81D20
:10248000D80FA8011C00C303E007E007F003F8031E
:10249000180700000000000000010003800700038F
:1024A0008003E018F007D807B0010C00C007F80F50
:1024B000E00FC01F00020006008F00460027801BAF
:1024C000C017E00F60021001C0006001F003F003CC
:1024D000E001C00000000000000000001001100337
:1024E00090070803C801F81BB81DC403C407C4073C
:1024F000C403E0070000000000000000000020010D
:10250000200390071003C801F01BB81DC403E407A3
:10251000E20FF00F000000000000000000000000CB
:102520004100C100E201C200F403FC04EC01F80721
:10253000F01FF07F000080008001C0038001800157
:10254000E000F001D802FE3F180CE001E003E007D4
:10255000F007F807000080008001C00380018001BF
:10256000E000F001C003F8F700067C007E003E00AA
:102570007F007F0080008001C4138809B80CF00739
:10258000C00380010000C001A003E002C003700589
:10259000C006300280008001C4138809A804D00559
:1025A000400180000000C0000003A00040021005B0
:1025B000C002100280008001C4138001200490003A
:1025C00040018000000040000001200040000000A9
:1025D00000000000000080008001C0030000000037
:1025E00000000000000000000000000000000000EB
:1025F00000000000000000000000000080008001DA
:10260000C003000000000000000000000000000007
:1026100000000000000000000000000000000000BA
:102620000000000080008001C003000000000000E6
:10263000000000000000000000000000000000009A
:10264000000000000000000000000000000080000A
:102650008001C00300000000000000000000000036
:102660000000000000000000000000008000800169
:10267000C003000000000000000000000000000097
:1026800000000000000000000000000000008000CA
:102690008001C00380009801C8039801B00DF01FAD
:1026A000E007800100008007C00FE00FE007F00D99
:1026B000700098008001D8038C19B811F01FE00F4A
:1026C00080010000E003F007F00FF00F1806000C87
:1026D0000000000000018019C0138019B00DF80F30
:1026E000E00780010000E001F003F007E007B00F11
:1026F000000E00198001C01B9831881DF80FF007EB
:1027000080010000C007E00FF00FF00F60183000EC
:102710000000000000020006000F00060006006333
:1027200000B780CF807B80078017800FC00FC01F4D
:10273000E01FE03F0001000380070003000F801B43
:10274000C01FC00FC0078007800F800FC00FC01FC1
:10275000E01FE03F00018001C0038001E001B00301
:10276000F00360038007A007E007E007E007F00739
:10277000F00FF80F8000C000E001C000C0008C0125
:10278000DA01E603BC03C003D003E003E007F0076F
:10279000F00FF80FFFE0FFD1AFFF32FFD0FFFEFFD9
:1027A000E0FFD1AEFFD0FFFEFFE0FFD11000FFFE43
:1027B000FFD0FFE0FFC1FFD1AED580A83FD30040DE
:1027C0008D142000A1C8DA1281CFD9F1DB402EA4EC
:1027D000A6AFFFD0FFFE00000000240027002A0063
:1027E00000000000250028002B000000000023004E
:1027F0002600290004040404040404040202020262
:1028000002020303030303030102040810204080B3
:102810000102040810200102040810200000000832
:102820000002010000030407000000000000000097
:10283000A82411241FBECFEFD8E0DEBFCDBF11E02A
:10284000A0E0B1E0E4E1FAE602C005900D92A43206
:10285000B107D9F727E0A4E2B1E001C01D92AE3381
:10286000B207E1F714E1C9E1D4E104C02197FE0108
:102870000E940532C831D107C9F70E9444250C9443
:1028800008350C94000090E09C013595279525753E
:10289000880F991F8A7A822B282F30E0C9019595DD
:1028A0008795959587958373220F331F220F331FCA
:1028B0002C7C822B82950895089580E090E0089505
:1028C0008F929F92AF92BF92CF92DF92EF92FF9240
:1028D000CF93DF9369017A0120E030E040E05EE3CE
:1028E0000E9410310E947D314B015C0160915305C3
:1028F00070E080E090E00E945B30A50194010E94AE
:10290000B22F0E942A30C62FD0E0219620E030E07E
:1029100040E05EE3C701B6010E9410310E947D31A4
:102920006B017C016091520570E080E090E00E94B4
:102930005B30A70196010E94B22F6B017C0120E061
:1029400030E040E85FE30E94B22F0E942A3084E02A
:10295000CC0FDD1F8A95E1F7CE52DD4FFE01E60F69
:10296000F11D8081803461F0C701B6010E942A30D8
:10297000C60FD11D81E09881903419F080E001C02C
:1029800081E0DF91CF91FF90EF90DF90CF90BF90EB
:10299000AF909F908F900895DF92EF92FF920F93E8
:1029A0001F93CF93DF93EC01D62E1CAD0BAD7C01B2
:1029B00084E0E80EF11CE98DFA8DC7010995412FDD
:1029C000480F2D2D602FC7010E9446209BAD890F17
:1029D0008BAF81E090E0DF91CF911F910F91FF903D
:1029E000EF90DF900895DB011496ED91FC9115971F
:1029F00020E030E065E00994DB011496ED91FC9154
:102A0000159720E030E062E00994DB011496ED9127
:102A1000FC91159720E030E063E009940F93FC01EE
:102A20000150040F84A996A9941718F0081728F4E8
:102A300002C0081750F0041740F42150260F83A954
:102A400095A9961720F4281720F480E007C02817CE
:102A500020F481E0261710F0F8CF81E00F9108955F
:102A60001F920F920FB60F9211248F939F93EF93A3
:102A7000FF939091C501E0E0F0E080818927808399
:102A8000FF91EF919F918F910F900FBE0F901F902C
:102A900018951F920F920FB60F9211242F933F9308
:102AA0004F935F936F937F938F939F93AF93BF9356
:102AB000EF93FF938091C401882339F09091C30173
:102AC000809100008927809300008091C2018823B3
:102AD00009F48DC08091BE019091BF01A091C00109
:102AE000B091C101892B8A2B8B2B09F480C0809176
:102AF000BE019091BF01A091C001B091C1010197A9
:102B0000A109B1098093BE019093BF01A093C001B8
:102B1000B093C101892B8A2B8B2B09F48EC067C01F
:102B2000982F907F903809F0A1C08F70E82FF0E0C7
:102B3000E859F14EE491E13009F493C008F086C001
:102B400080916E008D7F80936E008091B201909194
:102B500000008095892380930000E091B301F091FB
:102B6000B401DF011196B093B401A093B301849135
:102B700087FDD6CF3296F093B401E093B301FD0107
:102B8000A491B0E0B82B2091BC013091BD010E940E
:102B9000EB316C507E4F8F4F9F4F28EE33E040E07B
:102BA00050E00E94C9312093BE013093BF01409391
:102BB000C0015093C1018091BE019091BF01A091CD
:102BC000C001B091C101892B8A2B8B2B61F481E06C
:102BD00090E0A0E0B0E08093BE019093BF01A0938D
:102BE000C001B093C1018091B90181115EC0809193
:102BF000B901882309F4D4C08091B5019091B60140
:102C0000A091B701B091B801892B8A2B8B2B09F4C5
:102C1000C7C08091B5019091B601A091B701B09164
:102C2000B8010197A109B1098093B5019093B6014C
:102C3000A093B701B093B801B3C08091BC0190914B
:102C4000BD019093BB018093BA0187CFE23009F0B8
:102C500084CF809170008D7F809370008091C5013A
:102C600076CF1092C4018091C30171CF903941F4A5
:102C70003296F093B401E093B301FD01A4916DCFBE
:102C8000903C31F43296F093B401E093B30165CFF8
:102C9000903E29F41092B4011092B3015ECF903FA0
:102CA00009F05BCF1092C2019ECF2091BA01309102
:102CB000BB018091BC019091BD012817390709F42F
:102CC00096CF8091B5019091B601A091B701B091D6
:102CD000B8010097A240B10508F442C08091BC0140
:102CE0009091BD0181159044D8F14091B50150916A
:102CF000B6016091B7017091B801A091BC01B0918B
:102D0000BD01E091BA01F091BB014C5F5F4F6F4F85
:102D10007F4F9A01AB0183E05695479537952795EC
:102D20008A95D1F71296B695A795B695A7950E9464
:102D3000FA319F0140E050E00E94C931DA01C90137
:102D400025E0880F991FAA1FBB1F2A95D1F78093F2
:102D5000B5019093B601A093B701B093B80147CFE6
:102D6000A091BC01B091BD012091B5013091B60197
:102D70004091B7015091B801E091BA01F091BB01C7
:102D80000E94FA319F0140E050E00E94C931209337
:102D9000B5013093B6014093B7015093B80127CFE6
:102DA000FF91EF91BF91AF919F918F917F916F9123
:102DB0005F914F913F912F910F900FBE0F901F90F9
:102DC00018951F920F920FB60F9211248F939F9315
:102DD000EF93FF939091B201E0E0F0E080818927CA
:102DE0008083FF91EF919F918F910F900FBE0F9075
:102DF0001F9018958F929F92AF92BF92CF92DF92C1
:102E0000EF92FF92CF93DF9369017A0120E030E0E7
:102E100040E05EE30E9410310E947D314B015C0175
:102E20006091530570E080E090E00E945B30A50166
:102E300094010E94B22F0E942A30C62FD0E020E0D9
:102E400030E040E05EE3C701B6010E9410310E940D
:102E50007D316B017C016091520570E080E090E073
:102E60000E945B30A70196010E94B22F20E030E063
:102E700040E050E40E94B22F0E942A30862F90E05A
:102E8000FE0134E0EE0FFF1F3A95E1F7EE52FD4FE1
:102E9000E80FF91F208120522E3080F024E0CC0F63
:102EA000DD1F2A95E1F7CE51DD4FC80FD91F98815C
:102EB000905281E09E3018F080E001C081E0DF9107
:102EC000CF91FF90EF90DF90CF90BF90AF909F9009
:102ED0008F9008952F923F924F925F926F927F92C0
:102EE0008F929F92AF92BF92CF92DF92EF92FF921A
:102EF0000F931F93CF93DF93CDB7DEB727970FB60E
:102F0000F894DEBF0FBECDBF8091010790910207FC
:102F100021E08830920751F090930B0180930A01D1
:102F200088E091E0909302078093010783E89FE196
:102F300090930901809308018FEF96E00E9424206E
:102F400061E08DE00E94FD2361E08DE00E94CE23D0
:102F50001092F4061092CC011092CD011092CE0185
:102F60001092CF011092C8011092C9011092CA01AB
:102F70001092CB011092D4011092D5011092D6017B
:102F80001092D7011092D0011092D1011092D2016B
:102F90001092D30189E090E09093550580935405F9
:102FA00081E08093D1028093D8018093F0068093D2
:102FB000F306E9EDF1E089EC92E0148238968E1781
:102FC0009F07D9F7E6E5F5E080EF96E040E850E0AE
:102FD00020E8108252834183238314821582178252
:102FE0003A968E179F07A9F742ED52E05B834A831A
:102FF0001F821E825EEF598320E060E070E080E275
:1030000091E430E0812C912C50ECA52E51E4B52EAA
:10301000212C312CAE81BF81AA0FBB1FBD83AC8395
:10302000CA80DB80E12CF12C00E010E0EE81FF8112
:103030002F01FF0F66087708EC81FD81E00FF11F7B
:10304000E859FF4FE491D601EC93E13099F4C301C4
:10305000B2010E945B304B015C01B7010F2C000CE8
:10306000880B990B0E945B302AEF200FF60110822B
:10307000398128C04FEF4E0F4F3120F5FAE0F29D15
:10308000D001F39DB00D1124AA5ABA4F4E815F8131
:1030900012965C934E9311971396EC921397189691
:1030A000EC92189751E05C9314965C931497E2505D
:1030B0001796EC9317971596EC93AFEF2A1A3A0AE6
:1030C000F60110820F5F1F4FFFEFCF1ADF0A48E0B3
:1030D000E40EF11C0031110509F0AECF59815F5F9C
:1030E0005983AE81BF811896BF83AE83EA81FB818D
:1030F0007096FB83EA83563209F08CCF8092C90226
:103100009092CA02A092CB02B092CC0230935305A7
:103110006093CD027093CE028093CF029093D00241
:103120002093520527960FB6F894DEBF0FBECDBF91
:10313000DF91CF911F910F91FF90EF90DF90CF9093
:10314000BF90AF909F908F907F906F905F904F90C7
:103150003F902F9008954F925F926F927F928F923F
:103160009F92AF92BF92CF92DF92EF92FF920F9316
:103170001F93CF93DF932FB7F8948091F606909129
:10318000F706A091F806B091F9062FBF4091A6016D
:103190005091A7016091A8017091A90148175907A2
:1031A0006A077B0709F452C02FB7F8948091F6069E
:1031B0009091F706A091F806B091F9062FBF4091C3
:1031C000A6015091A7016091A8017091A901841BEB
:1031D000950BA60BB70B0597A105B105B8F1F894AF
:1031E0001092A5011092A401F12C6F2D61708091B5
:1031F000AB010E94CE23EE24E394EF0C23E0F21601
:1032000009F432C22F1508F4F1C132E0F31609F4C3
:10321000F6C1FE2CE8E0EE12E8CF8091A40180FF19
:103220001092AA0178942FB7F8948091F6069091A5
:10323000F706A091F806B091F9062FBF8093A6017A
:103240009093A701A093A801B093A901E090A401D5
:10325000F090A501F092F206E092F106C090C6014E
:10326000D090C701CE14DF0409F43AC1C6FC18C0DF
:10327000E6FE16C0E2FC14C02091CD023091CE02D1
:103280004091CF025091D0026091C9027091CA0260
:103290008091CB029091CC020E94FA1681118FC2CC
:1032A000C7FC1FC0E7FE1DC08091D8018530C9F062
:1032B00086E08093D8016091D102F6E06F9FB00163
:1032C000112463507109072E000C880B990B0E9482
:1032D0005B306093CC017093CD018093CE019093CD
:1032E000CF01D0FC45C0F0FE43C08CE08093D801F4
:1032F00080E08F5F28E0829F50011124F501E752A2
:10330000FE4F6F0194819111F4CF6091C9027091C9
:10331000CA028091CB029091CC020E942330F60128
:10332000718360836091CD027091CE028091CF0253
:103330009091D0020E942A30F60162834091D1021E
:1033400021E030E0241B310958EE5203C001539FA5
:10335000900D11240C969783868381E0411101C062
:1033600080E0F6018583F501E752FE4F81E084831A
:10337000E1FECCC020E030E040E05EE36091CD02B1
:103380007091CE028091CF029091D0020E941031B4
:103390000E947D312B013C0120E030E040E05EE303
:1033A0006091C9027091CA028091CB029091CC02C7
:1033B0000E9410310E947D314B015C0160915205E9
:1033C00070E080E090E00E945B30A30192010E94D7
:1033D000B22F0E9423306B016091530570E080E0B2
:1033E00090E00E945B30A50194010E94B22F0E94E0
:1033F00023309B018EEF860F92E0682F70E0261736
:10340000370724F1EEEFBE2EBC0CFB01A4E0EE0F5B
:10341000FF1FAA95E1F7EE52FD4F4B2D50E0C41669
:10342000D50694F0DF01A40FB51FAC91A13429F0AB
:10343000A73431F48B0191E004C08B0190E001C00E
:10344000AE01B394EA01E9CF8F5FD7CF911123C0CA
:10345000C80144E0880F991F4A95E1F78E529D4FAD
:10346000FC01EC0FFD1F27E4208354E0000F111F27
:103470005A95E1F70E511D4FF801EC0FFD1F25E4A1
:1034800020832196FC01EC0FFD1F28E42083C00F50
:10349000D11F86E424C0913029F5C80124E0880FAB
:1034A000991F2A95E1F78E529D4FFC01EC0FFD1FED
:1034B00021E4208334E0000F111F3A95E1F70E510B
:1034C0001D4FF801EC0FFD1F23E420832196FC0122
:1034D000EC0FFD1F22E42083C00FD11F84E48883FA
:1034E000E1FE14C02091CD023091CE024091CF0276
:1034F0005091D0026091C9027091CA028091CB02B2
:103500009091CC020E946014811169C1C70184743A
:10351000992784349105E9F48091D8018530C9F068
:103520006091D102F0E16F9FB001112468507109E0
:10353000072E000C880B990B0E945B306093CC0126
:103540007093CD018093CE019093CF0185E080935D
:10355000D8018091D801E3FE14C0853021F440E009
:1035600050E0BA0104C040E050E060E070EC4093ED
:10357000CC015093CD016093CE017093CF01109296
:10358000D102E4FE15C0853021F440E050E0BA01DC
:1035900004C040E050E060E070E44093CC01509300
:1035A000CD016093CE017093CF0191E09093D10251
:1035B0008B30A9F42091CD023091CE024091CF0200
:1035C0005091D0026091C9027091CA028091CB02E1
:1035D0009091CC020E946014882309F413C1E5FE87
:1035E00017C10E946A171092F30612C184E0F81600
:1035F00009F492C095E0F91609F49FC00ACE8091B3
:10360000AE010E94A523892B39F48091AF010E945D
:10361000A52321E0892B09F020E08091A40190915D
:10362000A501822B9093A5018093A40180FFEEC099
:103630008091B0010E94A523892B49F48091A401B7
:103640009091A50180649093A5018093A40180913D
:10365000B1010E94A523892B09F0D8C08091A40153
:103660009091A5018062A6C08091AC010E94A52323
:10367000892B49F48091A4019091A50182609093D7
:10368000A5018093A4018091AD010E94A523892BFF
:1036900049F48091A4019091A50184609093A501C3
:1036A0008093A4018091AE010E94A523892B49F447
:1036B0008091A4019091A50188609093A5018093C9
:1036C000A4018091AF010E94A523892B49F4809128
:1036D000A4019091A50180619093A5018093A4011C
:1036E0008091B0010E94A523892B49F48091A40107
:1036F0009091A50180689093A5018093A401809189
:10370000B1010E94A523892B09F080C08091A401FA
:103710009091A50191604EC08091AC010E94A523BB
:10372000892B39F48091AD010E94A52321E0892BDA
:1037300009F020E02093AA016CCD8091AA01882392
:1037400009F464C08091AC010E94A523892B49F43F
:103750008091A4019091A50198609093A501809318
:10376000A4018091AD010E94A523892B49F4809189
:10377000A4019091A50194609093A5018093A40168
:103780008091AE010E94A523892B49F48091A40168
:103790009091A50192609093A5018093A4018091DE
:1037A000AF010E94A523892B89F58091A4019091F6
:1037B000A50190619093A5018093A4012ACD80E09A
:1037C00090E0A0E2B1EC8093C8019093C901A0936E
:1037D000CA01B093CB0185E08093D80161CD80E030
:1037E00090E0A0E8BFEB8093C8019093C901A0933B
:1037F000CA01B093CB018BE08093D80189E180931B
:10380000F40684CE81E08093D801E9CEFE2CEDCC85
:10381000DF91CF911F910F91FF90EF90DF90CF90AC
:10382000BF90AF909F908F907F906F905F904F90E0
:1038300008952F923F924F925F926F927F928F9254
:103840009F92AF92BF92CF92DF92EF92FF920F932F
:103850001F93CF93DF93CDB7DEB769970FB6F89478
:10386000DEBF0FBECDBF582ED42E188F0F8BC42EA7
:10387000C694C694C694342F32953F703B8B8C2CE3
:10388000912C260F2A8B87E0850D898B442E98EF8B
:10389000C99E400C1124FE0131967F019F01280D25
:1038A000391D3D8B2C8B852D38E0C39E800D112456
:1038B0008E8B162F212C312C9989940F998FEA89A0
:1038C0001E1709F46AC0D70180E090E08C1558F407
:1038D000F101E80FF91F2F89388DE20FF31FE491F2
:1038E000ED930196F3CF3701680C791C57018A2DAF
:1038F0008E193B89831780F4F5010081F3018291D1
:103900003F010E944314F50181935F01802F0E94C3
:103910004314F3018083EBCF01E02D2D412F652D62
:103920008FEF96E00E940E15882399F109895701BF
:10393000898D801B8830C8F0F50181915F0160910D
:1039400001077091020700931B0710931C07F2E018
:10395000F0931E0780931D072BE137E04BE38FEFB9
:1039600096E00E945F1F085FE3CF442091F0EC894E
:10397000FD89A080B42C0E89A0FC06C00F5FBA940C
:10398000A694B110F9CF05C0612F802F0E949C2210
:10399000F5CF1F5F280C391C92CF69960FB6F894AB
:1039A000DEBF0FBECDBFDF91CF911F910F91FF9072
:1039B000EF90DF90CF90BF90AF909F908F907F90CF
:1039C0006F905F904F903F902F900895EF920F93DC
:1039D0001F93EE2019F00E94AA2202C00E94191C17
:1039E0001F910F91EF900895CF92DF92EF92FF9287
:1039F0000F931F93CF93DF936C017A018B01C0E08B
:103A0000D0E0CE15DF0581F0D8016D918D01D60192
:103A1000ED91FC910190F081E02DC6010995892B73
:103A200011F02196EECF7E01C701DF91CF911F915A
:103A30000F91FF90EF90DF90CF900895089580E070
:103A40000895DC011696ED91FC91179712968C91D2
:103A5000481B477081E090E001C0880F4A95EAF763
:103A6000E60FF11D3081222311F0832B02C08095D7
:103A7000832380830895FB014181DC0112962C9100
:103A80001297421768F013962C911397241740F061
:103A9000608115962C91621718F424810C94211DD5
:103AA0000895FC0130819281930F928321819217B6
:103AB00060F494819F5F94838381830F821710F059
:103AC0008FEF820F838381E0089580E00895FC01E9
:103AD00012828081815083831482089580E008954A
:103AE0000B96FC01849108950A96FC018491089537
:103AF000FC01849108950E94781D882321F0823072
:103B000011F083E0089586E00895FC01E60FF11DB1
:103B1000849190E0982F88273196E4918E0F911D23
:103B2000089568E00C94851D66E00C94851D2EE9CF
:103B30003FE0009729F0F9013197F1F70197F9CFAC
:103B400008951092F50608958093FA061092B90030
:103B500084FF02C08CE001C088E48093B8000C941C
:103B6000A11D0E940B32CF92DF92EF92FF920F9332
:103B70001F93CF93DF938C017B016A0180E0F601F4
:103B8000C49181110BC0CF3F09F44CC04C2FB70139
:103B9000C8010E94F314811143C049C0CF3F11F402
:103BA0004FEFF5CFCE3F09F444C0C03FC8F5C03E4B
:103BB00038F04C2F4F70B701C8010E94FC1430C080
:103BC000C03D38F04C2F4F70B701C8010E94051559
:103BD00027C0C03CF8F0D7011496ED91FC911597E1
:103BE00020E030E040E064E0C8010995C295C07F64
:103BF000CE5FD0E0CE010E94971DD7011496ED91C3
:103C0000FC91159720E030E041E064E0C80109959F
:103C1000CE0104C0C7FD04C08C2F90E00E94971D08
:103C200080E001C081E0BFEFCB1ADB0AA8CF80E0C3
:103C300001C081E0DF91CF911F910F91FF90EF9034
:103C4000DF90CF900895AF92BF92CF92DF92FF9214
:103C50000F931F93CF93DF936C018B01F42EE90137
:103C600020E1421709F466C02417F8F03AE0431740
:103C700021F18FE0481368C041E0C6010E9405159C
:103C800040E0B801C6010E94FC1441E8B801C60139
:103C90000E94F3144881B801C6010E94F31440E069
:103CA000B801C6010E940515FFC0A1E14A1709F439
:103CB00044C0B5E14B1791F047C0DB011496ED917C
:103CC000FC91159720E030E042E061E0099540EB7F
:103CD00057E2B801C6010E94B31D36C0FB01A280A5
:103CE000B38048EA57E20E94B31DD50114964C9167
:103CF000406BB801C6010E94F31441E0B801C6014F
:103D00000E94FC14F50126813781D8011496ED91AB
:103D1000FC911597D50115964C9166E0C601099561
:103D2000811102C080E0C1C040E0B801C6010E941C
:103D300005150AC04FE957E202C044E957E2B8014D
:103D4000C6010E94B31DB0C0F80102811381F2E3E5
:103D5000FF1609F470C0FF15B8F025E1F21609F45A
:103D600077C037E1F31609F489C084E1F8129CC0EA
:103D7000D8011696ED91FC91179715968C919F019D
:103D8000280F311DC9015CC0A6E4FA1609F485C0EC
:103D9000B7E4FB1609F484C0EBE3FE1285C0898109
:103DA0009B81913029F0933031F4482F885004C022
:103DB00048E0480F01C0482F51E0D80113962C91DC
:103DC000281708F450E031E0F8012281421708F486
:103DD00030E021E0481708F020E0822F852B3823BF
:103DE00019F4252309F460C0CA80913061F038F0DD
:103DF000923061F0933071F4FF24FA940CC0F12CEE
:103E0000DD24D39409C0FF24F39405C0F12CDD24F4
:103E1000DA9402C0F12CD12CC7FE04C0BE01C80147
:103E20000E943B1D88818D0D888389818F0D898338
:103E3000CC0C91F739C0BE01C8010E943B1D34C0B3
:103E400011928E179F07E1F7C8010E94671D2CC0D1
:103E5000C8010E94511D882309F464CFD801169629
:103E6000ED91FC91179715968C919F01280F311DAC
:103E7000C90111928E179F07E1F716C01882D80169
:103E800012968C911297898315968C911597815073
:103E90008A8313968C918B8307C0F801858103C0B8
:103EA000D80111968C91888381E0DF91CF911F9189
:103EB0000F91FF90DF90CF90BF90AF900895DB01FE
:103EC000ED91FC910994CF93DF931F92CDB7DEB7AC
:103ED0009E012F5F3F4F47E40E945F1F89810F9033
:103EE000DF91CF910895CF93DF931F92CDB7DEB7C7
:103EF0009E012F5F3F4F46E40E945F1F89810F9014
:103F0000DF91CF910895BF92CF92DF92EF92FF920F
:103F10000F931F93CF93DF938C01D42EE901FB0104
:103F2000E280F380F2E34F1709F458C0F41760F011
:103F30008CE2481709F452C0EDE24E1709F45FC055
:103F4000F7E14F17D1F00AC086E44817E1F1E7E442
:103F50004E17F1F1FBE34F1709F451C09E014D2DAF
:103F6000B701C801DF91CF911F910F91FF90EF90A2
:103F7000DF90CF90BF900C945F1F47E1B701C8015D
:103F80000E945F1FB701C8010E94731FBA80B094DE
:103F9000B80EB701C8010E94731FD880D094D80E04
:103FA000B701C8010E94631FCB80C094C80EB7013F
:103FB000C8010E94631F99819095890FB882C982B8
:103FC000DA828B8336C0B701C8010E94731F04C018
:103FD000B701C8010E94631F88832BC0B701C801C5
:103FE0000E94631FC980C094C80EB701C8010E9417
:103FF000731F98819095890F8883C98214C0B70177
:10400000C8010E94631FC980C094C80EB701C801CF
:104010000E94731F98819095890F8883C9828B8134
:104020008E5F83708B839E014D2DB701C8010E9466
:104030005F1F81E0DF91CF911F910F91FF90EF9073
:10404000DF90CF90BF900895CF93DF93EC016A810A
:104050007B810E94731F88836A817B81CE010E94CD
:10406000631F89836A817B8120E030E048E4CE01D0
:104070000E945F1F8B879E012D5C3F4F6A817B8171
:1040800047E1CE01DF91CF910C945F1F5F926F9259
:104090007F928F929F92AF92BF92CF92DF92EF92D8
:1040A000FF920F931F93CF93DF93EC01062F142FF2
:1040B000C22EEC80FD80C7010E94781DD82E8C8115
:1040C0009D810E947B1D982E21E0D21203C02FE01B
:1040D000A22E02C0AA24AA948C819D810E94741DE4
:1040E000D82E8C819D810E94701DB82E8C819D815F
:1040F0000E94911DE0E6EC1538F4009729F0E80ED7
:10410000F91E91E6D92E11C08C819D810E94941DCB
:10411000F0E4FC1538F4009729F0E80EF91E81E46C
:10412000D82E03C021E1E20EF11CBC1430F4188A31
:104130001B8A1C8A198A1A8A9AC0BD14C0F3892D59
:1041400090E0F70124912F3F21F4FFEFEF1AFF0ACF
:1041500040C0CD1035C08C819D810E94781D970193
:104160002F5F3F4FF701882311F0823091F4849143
:104170008B8BF90124912C8BF7013396E491E88B1A
:10418000F7013496E491E98BF7013596E491EA8BD7
:1041900025C08491982F9F7092509A8B82958F7032
:1041A000898BF9012491822F8F708C8B22952F702F
:1041B0002B8BF7013296E491E295EF70E88B0EC0FD
:1041C000F7013296E491EA219C012E0F311DE20E97
:1041D000F31EBD1409F4ABCFD394B3CFE114F104B3
:1041E00009F445C08C819D810E947B1DA82EDB882F
:1041F000BC88C988C00E8A898B0D181B0B2D2D2DEC
:10420000412F6C2DCE010E940E15882371F1EA0C0E
:10421000F11C87E08D0DD82ED694D694D6945B2CC5
:10422000510E4E01FCE18F0E911C6D2C712C51161C
:10423000E1F00C2D57018A2D8E198D1590F4F501A2
:1042400084916A817B810C8F1D8F1F8E8E8F9401CC
:104250004BE3CE010E945F1FFFEFAF1ABF0A085F5A
:10426000EACFE60CF71C1F5FE2CF888901C080E02F
:10427000DF91CF911F910F91FF90EF90DF90CF9042
:10428000BF90AF909F908F907F906F905F900895B8
:104290009091F506911102C08093F50608951F9341
:1042A000CF93DF9300D0CDB7DEB720ED37E03A8370
:1042B00029839091BC00982399F429813A81232B7A
:1042C00051F48091FA06182F127081FD09C081E027
:1042D0000E94482106C029813A8121503109E7CF47
:1042E00011E0812F0F900F90DF91CF911F910895D2
:1042F00084E98093BC0064E080E10C944F21CF936B
:104300008093BB0084E88093BC0063E080E80E9457
:104310004F21C82F882389F08091FA06C82FC270D8
:1043200081FD0AC08091B900887F883229F063E05E
:1043300082E00E94482101C0C1E08C2FCF910895F6
:10434000CF93DF93FC0123A5222379F0EC010E9497
:104350006E23811102C080E009C08EA1811180E42A
:104360000E947F218823B9F31BA681E0DF91CF91C2
:1043700008950F931F93CF93C42F89016330C1F029
:1043800050F4613081F0623009F048C0FC0146A36E
:1043900021E023A743C0663011F1673079F1653021
:1043A00009F03CC00EC0FC0186A50E94A41D36C0C9
:1043B000FC0116A221E023A7411130C00E94782100
:1043C0002DC00E94A021811104C00E94782180E0AC
:1043D00026C08C2F0E947F21811120C0F6CF0E9421
:1043E000A021882391F3CC23C9F0F80181918F019A
:1043F0000E947F21882349F3C150F5CF0E94A0215C
:10440000882319F3CC2351F0F80184910E947F2175
:10441000882329F00F5F1F4FC150F4CF81E0CF9167
:104420001F910F910895833081F028F4813099F025
:104430008230A1F008958730A9F08830B9F0843037
:10444000D1F4809180008F7D03C0809180008F77B0
:1044500080938000089584B58F7702C084B58F7DE6
:1044600084BD08958091B0008F7703C08091B00023
:104470008F7D8093B0000895CF93DF93C0910107A3
:10448000D0910207E0913007F091310782E0099561
:1044900020E030E04AE0BE018FEF96E00E945F1F0F
:1044A000C82FE0913007F091310783E00995E09142
:1044B0003007F091310780E00995CC2331F08FEF80
:1044C00096E00E94242081E001C080E0DF91CF913E
:1044D0000895CF93DF9380913807811105C081E063
:1044E000809338070E943C22C0910107D0910207B7
:1044F000E0913007F091310782E00995E0913007B3
:10450000F091310781E0099520E030E044E1BE01FF
:104510008FEF96E00E945F1F22E337E047E1BE0184
:104520008FEF96E00E945F1FE0913007F091310716
:1045300080E0DF91CF910994962FEBEFF6E0668152
:10454000778180A391A32BE137E042E38FEF96E0E0
:104550000C945F1F4F925F926F927F928F929F9207
:10456000AF92BF92CF92DF92EF92FF920F931F9381
:10457000CF93DF93982EC62FD42FB22E6801022F2F
:10458000242F462F682F8FEF96E00E940E15882368
:1045900009F459C087E08D0FE82EE694E694E6947E
:1045A000F12C0C2F0B0D87E0882E890C8D2F869512
:1045B00086958695A82EB12C5D2E98EF899F500C7C
:1045C0001124E8E08E9F900C11241D2F180D92E00D
:1045D000492EC017C1F13601D82D812F8D1B88308F
:1045E000D0F0F30184916091010770910207D0939C
:1045F0001B07C0931C0740921E0780931D072BE1E9
:1046000037E04BE38FEF96E00E945F1FFFEF6F1ADA
:104610007F0AD85FE2CFF601EA0DFB1D511004C0FE
:10462000CE0CDF1CCF5FD5CFD491752C692CD0FF79
:1046300004C06C2F862D0E949C2263947A94D69598
:104640007110F5CFEDCFDF91CF911F910F91FF90BA
:10465000EF90DF90CF90BF90AF909F908F907F9022
:104660006F905F904F9008950F931F93CF93E091B9
:104670000D07F0910E07309719F08FEF96E009952E
:104680000091010710910207E0913007F091310786
:1046900082E00995E0913007F091310781E00995BA
:1046A00020E030E045E1B8018FEF96E00E945F1F07
:1046B000C82F882341F022E337E047E1B8018FEFAC
:1046C00096E00E945F1FE0913007F091310780E093
:1046D00009958C2FCF911F910F910895CF9384EA64
:1046E0008093BC0061E080E80E944F21882359F04C
:1046F0008091B900887F883041F0803131F061E0ED
:1047000082E00E944821C0E01DC088E78093BB0082
:1047100084E88093BC0062E080E80E944F218823F7
:1047200091F38091FA06C82FC27081FD0AC0809172
:10473000B900887F883129F062E082E00E94482138
:1047400001C0C1E08C2FCF910895CF93DF93282F24
:1047500030E0F901E45EF74D8491F901E85FF74D2F
:10476000D491F901EC50F84DC491CC2391F0811112
:104770000E941322EC2FF0E0EE0FFF1FE651F84DE0
:10478000A591B491EC91ED2381E090E021F480E0DB
:1047900002C080E090E0DF91CF9108951F93CF9306
:1047A000DF93282F30E0F901E45EF74D8491F901A1
:1047B000E85FF74DD491F901EC50F84DC491CC234A
:1047C000C1F0162F81110E941322EC2FF0E0EE0FA2
:1047D000FF1FE052F84DA591B4919FB7F8941111C5
:1047E00004C08C91D095D82302C0EC91DE2BDC93D1
:1047F0009FBFDF91CF911F910895CF93DF9390E0FA
:10480000FC01E85FF74D2491FC01EC50F84D8491D8
:10481000882361F190E0880F991FFC01EA52F84D5E
:10482000C591D491FC01E052F84DA591B49161116C
:1048300009C09FB7F8948881209582238883EC91E2
:104840002E230BC0623061F49FB7F8948881322F19
:10485000309583238883EC912E2B2C939FBF06C029
:104860008FB7F894E8812E2B28838FBFDF91CF91EB
:1048700008953FB7F89480913A0790913B07A09133
:104880003C07B0913D0726B5A89B05C02F3F19F006
:104890000196A11DB11D3FBFBA2FA92F982F8827C0
:1048A000820F911DA11DB11DBC01CD0142E0660F1B
:1048B000771F881F991F4A95D1F708951F920F926D
:1048C0000FB60F9211242F933F938F939F93AF9323
:1048D000BF938091F6069091F706A091F806B091EB
:1048E000F9063091390723E0230F2D3720F4019684
:1048F000A11DB11D05C026E8230F0296A11DB11D03
:10490000209339078093F6069093F706A093F80654
:10491000B093F90680913A0790913B07A0913C072C
:10492000B0913D070196A11DB11D80933A07909368
:104930003B07A0933C07B0933D07BF91AF919F9178
:104940008F913F912F910F900FBE0F901F90189550
:10495000CF93DF931092FE061092FD0688E191E05E
:104960009093FC068093FB0610923607109237074F
:10497000109238071092040710920307109206074E
:10498000109205071092080781E08093070782E2E2
:104990008093090710920E0710920D07E2E2F7E0EC
:1049A0008FEF819397E0E033F907D9F781E08093A7
:1049B0001F072EE63DE130931507209314078093DF
:1049C0001607109217071092180780E480931907B2
:1049D00010921A078EE19DE1909331078093300782
:1049E0008EE091E0909302078093010710922D07CB
:1049F0000E943C2288E191E09093FC068093FB06A4
:104A000085E08093AB0187E08093AC0184E08093E4
:104A1000AD0183E08093AE0182E08093AF0188E036
:104A20008093B00186E08093B10161E085E00E944F
:104A3000FD2361E08091AB010E94CE23CCEAD1E05E
:104A400062E089910E94FD2381E0C23BD807C1F753
:104A50001092A5011092A4011092AA012FB7F89408
:104A60008091F6069091F706A091F806B091F906AC
:104A70002FBF8093A6019093A701A093A801B093A4
:104A8000A901DF91CF910895CF93DF93CDB7DEB722
:104A9000AC970FB6F894DEBF0FBECDBF789484B547
:104AA000826084BD84B5816084BD85B5826085BD2A
:104AB00085B5816085BD80916E00816080936E00B8
:104AC00010928100809181008260809381008091AA
:104AD000810081608093810080918000816080935B
:104AE00080008091B10084608093B1008091B0001B
:104AF00081608093B00080917A00846080937A0016
:104B000080917A00826080937A0080917A0081603F
:104B100080937A0080917A00806880937A00109266
:104B2000C1000E946A171092F3061092F406809159
:104B3000F306811195C00E94692204E315E220E189
:104B400040E160E180E00E94AA2204E515E220E154
:104B500040E160E180E10E94AA2204E715E220E141
:104B600040E160E180E20E94AA2204E915E220E12E
:104B700040E160E180E30E94AA2204EB15E220E11B
:104B800040E160E180E40E94AA2204ED15E220E108
:104B900040E160E180E50E94AA2204EF15E220E1F5
:104BA00040E160E180E60E94AA2204E116E220E1F1
:104BB00040E160E180E70E94AA2204E316E220E1DE
:104BC00040E160E280E00E94AA2204E516E220E1D2
:104BD00040E160E280E10E94AA2204E716E220E1BF
:104BE00040E160E280E20E94AA2204E916E220E1AC
:104BF00040E160E280E30E94AA2204EB16E220E199
:104C000040E160E280E40E94AA2204ED16E220E185
:104C100040E160E280E50E94AA2204EF16E220E172
:104C200040E160E280E60E94AA2204E117E220E16E
:104C300040E160E280E70E94AA220E9434238111B1
:104C40007CCF0E94AB188091F1069091F206807C97
:104C50009170892BB1F381E08093F3060C942C2F93
:104C60008091F006882309F492C5E090C902EC8691
:104C7000F090CA02F88AE090CB02EC8AF090CC0265
:104C8000F88E2091CD023091CE024091CF0250910A
:104C9000D002298F3A8F4B8F5C8F20E030E040E0CC
:104CA0005FE36091D0017091D1018091D201909128
:104CB000D3010E9410316B017C018090CC01909057
:104CC000CD01A090CE01B090CF0120E030E040E0D7
:104CD0005FE36091D4017091D5018091D6019091EC
:104CE000D7010E941031A50194010E94B22F2B011F
:104CF0003C016093D4017093D5018093D6019093C9
:104D0000D70120E030E040E05FE3C501B4010E943C
:104D100010316093CC017093CD018093CE019093BC
:104D2000CF018090C8019090C901A090CA01B090B5
:104D3000CB01A5019401C701B6010E94B22F6B01FE
:104D40007C016093D0017093D1018093D201909344
:104D5000D30120E030E040E05FE3C501B4010E94F0
:104D600010314B015C016093C8017093C9018093BD
:104D7000CA019093CB01A30192016C8578898C893B
:104D8000988D0E94B22F362E272E8E839A87A701E8
:104D90009601698D7A8D8B8D9C8D0E94B22F6B014F
:104DA0007C0120E030E040E05EE3632D722D8E81D7
:104DB0009A850E9410310E947D312B013C01309177
:104DC00053053D8F632F70E080E090E00E945B30E0
:104DD0006E8F7F8F88A399A39B01AC01C301B201A1
:104DE0000E94B22F0E942A30062F10E020E030E00F
:104DF00040E05EE3C701B6010E9410310E947D31A0
:104E00006AA37BA38CA39DA3409152054EA3642F5C
:104E100070E080E090E00E945B306FA378A789A7E4
:104E20009AA79B01AC016AA17BA18CA19DA10E94C4
:104E3000B22F2B013C010E942A30E62FF0E0C8017E
:104E400024E0880F991F2A95E1F78E529D4FDC01CF
:104E5000AE0FBF1F2C9120522E3010F40C94362F21
:104E6000DF011196BCA7ABA7A80FB91F8C91805288
:104E70008E3010F40C94362F84E0000F111F8A95A9
:104E8000E1F70E511D4FE00FF11F808180528E30EF
:104E900010F40C94362F20E030E040E85FE3C301CB
:104EA000B2010E94B22F0E942A30F801E60FF11DD4
:104EB0008081803248F0EBA5FCA5E00FF11F8081D6
:104EC0008E3210F40C94362F4090CC015090CD01CE
:104ED0006090CE017090CF0120E030E0A901C301C5
:104EE000B2010E940B31181684F420E030E040E853
:104EF0005FE3C301B2010E94B12F6093CC017093B4
:104F0000CD018093CE019093CF014090CC01509081
:104F1000CD016090CE017090CF0120E030E0A9017A
:104F2000C301B2010E941E3087FF10C020E030E0B4
:104F300040E85FE3C301B2010E94B22F6093CC014D
:104F40007093CD018093CE019093CF0120E030E0AB
:104F5000A901C501B4010E940B31181684F420E0A8
:104F600030E040E85FE3C501B4010E94B12F6093D7
:104F7000C8017093C9018093CA019093CB018090BE
:104F8000C8019090C901A090CA01B090CB0120E067
:104F900030E0A901C501B4010E941E3087FF10C096
:104FA00020E030E040E85FE3C501B4010E94B22F89
:104FB0006093C8017093C9018093CA019093CB019B
:104FC00020E030E040EA50E46091CC017091CD01E6
:104FD0008091CE019091CF010E940B31181664F49C
:104FE00080E090E0A0EAB0E48093CC019093CD0102
:104FF000A093CE01B093CF0120E030E040EA50EC26
:105000006091CC017091CD018091CE019091CF0142
:105010000E941E3087FF0CC080E090E0A0EAB0EC58
:105020008093CC019093CD01A093CE01B093CF019A
:1050300020E030E040EA50E46091C8017091C9017D
:105040008091CA019091CB010E940B31181664F433
:1050500080E090E0A0EAB0E48093C8019093C90199
:10506000A093CA01B093CB0120E030E040EA50ECBD
:105070006091C8017091C9018091CA019091CB01E2
:105080000E941E3087FF0CC080E090E0A0EAB0ECE8
:105090008093C8019093C901A093CA01B093CB013A
:1050A000A7019601632D722D8E819A850E94FA16B2
:1050B000811117C020E030E040E050E46091C80169
:1050C0007091C9018091CA019091CB010E94B22FC9
:1050D0006093C8017093C9018093CA019093CB017A
:1050E00034C0298D3A8D4B8D5C8D6C8578898C8987
:1050F000988D0E94FA16811118C020E030E040E03F
:1051000051E46AA17BA18CA19DA10E9410319B0159
:10511000AC01C701B6010E941E308823B1F0C7015F
:10512000B6010E947D316B017C011092C801109282
:10513000C9011092CA011092CB011092D0011092B5
:10514000D1011092D2011092D301832D922DAE8104
:10515000BA858093C9029093CA02A093CB02B09300
:10516000CC02C092CD02D092CE02E092CF02F09259
:10517000D002A7019601632D722DCD010E94FA166F
:10518000882309F462C020E030E040E05EE3C7011C
:10519000B6010E9410310E947D314B015C0120E07C
:1051A00030E040E051E40E9410319B01AC01C701A6
:1051B000B6010E941E30811148C020E030E040E07E
:1051C0005EE3632D722D8E819A850E9410310E94BC
:1051D0007D319B01AC016E8D7F8D88A199A10E94CC
:1051E000B22F0E942A30062F10E0A50194016FA172
:1051F00078A589A59AA50E94B22F20E030E040E86A
:105200005FE30E94B22F0E942A30862F90E0F801BF
:10521000B4E0EE0FFF1FBA95E1F7EE52FD4FE80F35
:10522000F91F208120522E3008F438C6A4E0000F68
:10523000111FAA95E1F70E511D4FF801E80FF91F54
:10524000808180528E3008F429C620E030E048EC9E
:1052500052E4632D722D8E819A850E940B311816AF
:1052600084F480E090E0A4EBB2E48093C9029093D0
:10527000CA02A093CB02B093CC028D8D8F5F809336
:10528000530520E030E040E251E46091C9027091A2
:10529000CA028091CB029091CC020E941E3087FFFF
:1052A00011C020E030E040E851E42093C90230937F
:1052B000CA024093CB025093CC0280915305815097
:1052C0008093530520E030E048E252E4C701B60184
:1052D0000E940B31181684F480E090E0A8E1B2E45B
:1052E0008093CD029093CE02A093CF02B093D002D0
:1052F0008EA18F5F8093520520E030E040E051E4C2
:105300006091CD027091CE028091CF029091D00237
:105310000E941E3087FF11C080E090E0A0E8B1E459
:105320008093CD029093CE02A093CF02B093D0028F
:1053300080915205815080935205809153058D389C
:1053400010F01092530580915205803110F01092A8
:1053500052058091D801893019F481E08093D801F9
:10536000E9EDF1E08481882399F0808191819C01AD
:10537000205F3F4F2039310558F426813781820F55
:10538000931F918380838381843018F0138201C03E
:105390001482389692E0E93CF90721F78091530591
:1053A00028E0829F70011124FF82EE8280915205D5
:1053B00028E0829F70011124FB86EA864090C90292
:1053C0005090CA026090CB027090CC028091CD02C6
:1053D0009091CE02A091CF02B091D0028C8B9D8B88
:1053E000AE8BBF8B8091D8018550888B06E515E088
:1053F0002E813F81032E000C440B550B298F3A8FD1
:105400004B8F5C8F22242394312CA9EDB1E01496AC
:105410008C911497882309F44EC54D915C91119796
:10542000403851050CF047C5F8018081882309F404
:1054300042C521813281EE80FF802E193F0969012A
:10544000C41AD50A878190E0BC01660F771FFB0163
:10545000E80FF91FE85DFB4DE490E4914217530714
:1054600014F0F0E002C0E8E0F0E0CE16DF060CF049
:1054700022C5F801238130E0EA84FB842E193F091C
:105480001296EC901297F12CA9014E195F0957FF63
:1054900003C0519541955109FB01E80FF91FE75DE4
:1054A000FB4DE4912E153F0514F4F0E002C0E8E056
:1054B000F0E04E175F070CF0FEC4D8011C92149662
:1054C0001C921497E3E01796EC93D8018C918823F3
:1054D00009F44BC11196ED90FC901297FD86EC8675
:1054E000B701EE80FF806E197F09072E000C880B34
:1054F000990B0E945B306B017C01A30192010E9419
:10550000B12F4B015C0120E030E0A9010E940B317A
:10551000181624F0B7FAB094B7F8B094D8011796DB
:10552000EC91F0E0BF01660F771FE60FF71FE85D13
:10553000FB4DB491B88F698D7A8D8B8D9C8D0E94B7
:105540005B30A30192010E94B12F0E942330EC85B1
:10555000FD856E177F0724F0288DE22FF0E002C052
:10556000E0E1F0E0BF01FF0F880B990B0E945B3078
:10557000A50194010E940B3118160CF0F6C0C3016E
:10558000B2010E947D31A70196010E94B12F0E94B5
:105590002A30F62E6C897D898E899F890E947D3103
:1055A0004B015C01D80113966C9170E0EA85FB8594
:1055B0006E1B7F0B072E000C880B990B0E945B3033
:1055C0009B01AC01C501B4010E94B12F0E942A3099
:1055D000912C4F2D50E0C62ED12CA0E1AA2EB12C3B
:1055E000AC18BD08892D90E0662309F45DC08A15CA
:1055F0009B050CF0BAC09C012C193D09E6E0220F76
:10560000331FEA95E1F7F901EC5CFB4DA491F90138
:10561000EC5AFB4D249130E02A0F311DF801A48192
:10562000F0E2AF9FD0011124AE5BBE4DF6E0880FD3
:10563000991FFA95E1F7FD01E80FF91FF4908096A4
:10564000FD01E80FF91FE491F0E0EF0DF11D80E09E
:1056500090E08F30910589F07C017FEFE71AF70A1F
:10566000D101082E02C0AA0FBB1F0A94E2F7A223A1
:10567000B323AB2B11F4C701ECCF2FE030E0F22EB7
:105680002115310571F0D101022E02C0AA0FBB1FF6
:105690000A94E2F7AE23BF2321503109AB2B79F3F3
:1056A00001C0F12C2F2D45C0803191050CF05DC05B
:1056B00076E0880F991F7A95E1F7FC01EC5CFB4DD1
:1056C000B4919C01205E3F4FF901EC5CFB4DE491ED
:1056D000F0E07F01EB0EF11CD701F801E480F0E26D
:1056E000EF9E70011124F701EE5BFE4D7F01E80F84
:1056F000F91F8491F701E20FF31FE491F0E0E80F46
:10570000F11D8FE090E0282F009709F416C4710175
:10571000082E02C0EE0CFF1C0A94E2F7EA22FB22DC
:105720000197EF2881F380E090E08F30910509F038
:1057300006C430E09927F901E40FF51F37978E175B
:105740009F0744F0840F951F07972817390714F017
:10575000939448CF5889553040F4D8011C92149640
:105760001C921497E3E01796EC93065F1F4F60EFCF
:10577000E62E66E0F62EE016F10609F046CE8091A0
:10578000F1069091F2069093C7018093C6010E94A2
:10579000AB188091F0062091C9023091CA02409165
:1057A000CB025091CC022E833F834887598780904B
:1057B000CD029090CE02A090CF02B090D00288236C
:1057C00009F475C04091F4064F5F4093F406809150
:1057D000D80190E09C012559314EF901549101976F
:1057E000541730F4FC01E559F14EE491E093F406CE
:1057F000FC01E559F14EE4918091F4068E1720F4F6
:10580000F90124912093F4066091D4017091D5019F
:105810008091D6019091D7010E947D3120E030E047
:10582000A9010E941E30C090D001D090D101E0901B
:10583000D201F090D301811110C0C701B6010E94BE
:105840007D3120E030E0A9010E941E30811105C0A9
:105850001092F40681E08093D80120E030E0A901A5
:10586000C701B6010E940B3118166CF4A501940112
:105870006E817F81888599850E94FA16811117C0F3
:1058800083E08093D80120E030E0A901C701B60190
:105890000E941E3087FF0BC0A50194016E817F819D
:1058A000888599850E94FA16882309F40BC3809194
:1058B000530528E0829F70011124FB86EA86209020
:1058C000520538E0239E1001112406E515E0C101C0
:1058D000032C000CAA0BBB0B8C879D87AE87BF8760
:1058E0009701032E000C440B550B288B398B4A8BE8
:1058F0005B8BCC24C394D8018C91882309F46DC0B0
:1059000014964C9114974F5F14964C9314971796D6
:105910008C9190E09C01220F331FF901E80FF91FD1
:10592000E65DFB4DE491E41710F4F8011482820F58
:10593000931FFC01E75DFB4DE491FC01E85DFB4D2D
:105940008491D8011196ED90FC9012979701EA8509
:10595000FB852E1B3F0B90E0809590958217930757
:10596000E4F520383105CCF51396DC906D2D70E010
:105970009B0122193309821793077CF521343105E5
:1059800064F5D80115968C918111ABC2B7010F2C2B
:10599000000C880B990B0E945B302B013C0168893D
:1059A00079898A899B890E945B302E813F81488555
:1059B00059850E94B22F9B01AC01C301B2010E9424
:1059C0001E3087FF83C2FFEFEF1AFF0AD80112963D
:1059D000FC92EE9211971696CC92F8018781833053
:1059E00059F484818F5F8483E3E3F4E29491981700
:1059F00018F4D80117961C92065F1F4FE0EFF6E0EF
:105A0000E017F10709F077CF0E946922AAE0FA2E89
:105A1000BFE22B2EB4E23B2E9E012F5F3F4F690168
:105A2000E8EFEE2EAA24AA94BA2C68EF762E8824EA
:105A30008A94982C80915305A501480F511DCA01E5
:105A40004832510524F520915205D401A20FB11D11
:105A5000A031B105E4F454E0880F991F5A95E1F79D
:105A60008E529D4FFC01EA0FFB1F8081882379F045
:105A700090E08097F89E8001F99E100D11240E5F32
:105A80001D4D28E048E0672D8E2D0E94AA22BFEF11
:105A90008B1A9B0AE8E07E0EF8E47F12CBCF2FEF43
:105AA000A21AB20AEE0E30E8E312BFCF2091D10263
:105AB0008090C9029090CA02A090CB02B090CC0214
:105AC0006091CD027091CE028091CF029091D00270
:105AD0000091F406222321F10E947D312B013C012B
